:100000000C9434000C9451000C9451000C94510049
:100010000C9451000C9451000C9451000C9451001C
:100020000C9451000C9451000C9451000C9451000C
:100030000C9451000C9451000C94A7010C945100A5
:100040000C9451000C9425010C9451000C94510017
:100050000C9451000C9489000C9451000C945100A4
:100060000C9451000C94510011241FBECFEFD8E026
:10007000DEBFCDBF11E0A0E0B1E0E2EAF3E002C0F4
:1000800005900D92A230B107D9F711E0A2E0B1E0DE
:1000900001C01D92A631B107E1F70E945B010C94EB
:1000A000CF010C940000EEE0F1E044E050E061E0AC
:1000B00070E027B1CB01042E02C0880F991F0A946B
:1000C000E2F78095822387B9119211924F5F5F4FBB
:1000D0004730510571F780910001806480937C0066
:1000E0008FE880937A0080917A00806480937A0010
:1000F0000895833018F0EFEFFFEF09C0E82FF0E02C
:10010000EE0FFF1FE25FFE4F0190F081E02DCF0167
:1001100008951F920F920FB60F9211242F933F93C1
:100120004F935F936F937F938F939F93EF93FF937F
:1001300070910001472F50E0209178006091790084
:10014000FA01EE0FFF1FEA5FFE4F962F80E030E0CE
:10015000822B932B918380834630510524F47F5F5B
:100160007093000103C084E08093000180917C00C3
:10017000807F80937C0080917C0090910001892B8E
:1001800080937C0080917A00806480937A00FF9154
:10019000EF919F918F917F916F915F914F913F91DF
:1001A0002F910F900FBE0F901F90189584B18E6203
:1001B00084B985B1866085B980ED8CBD81E08DBD47
:1001C00008952A989C0120703F70232F206320936C
:1001D0001401982F809315012EBD0DB407FEFDCF9D
:1001E0009EBD0DB407FEFDCF2A9A299886E08A9518
:1001F000F1F7299A0895AC018091020190910301D1
:10020000892B91F4CA0180709F70292F206320935D
:100210001401409315012A9881E090E09093030126
:10022000809302012EBD089581E08093040108951A
:1002300020E08091020190910301892B09F421E0D3
:10024000822F08958091040108951F920F920FB696
:100250000F9211248F939F9380910201909103013B
:100260008130910551F482E090E0909303018093F6
:100270000201809115018EBD0CC0029751F42A9A9B
:10028000299886E08A95F1F7299A10920301109235
:1002900002019F918F910F900FBE0F901F901895A4
:1002A00080910501882319F081E08093060181E0A7
:1002B0008093050108950E9453000E94D6000E9479
:1002C0009F01789480910501882369F080E00E9465
:1002D0007900969587959695879501960E94740169
:1002E00010920501EFCFFFCF209108013091090155
:1002F000280F391F30930901209308012050304105
:1003000020F010920901109208018091080190914B
:10031000090190930B0180930A01089580910A01CD
:1003200090910B010895FC019A014817590728F094
:100330009B016E177F0708F49F01C901089592E0A1
:1003400094BD95BD85E387BD90936E0008951F927F
:100350000F920FB60F9211242F933F934F935F93F9
:100360006F937F938F939F93AF93BF93EF93FF937D
:100370000E948E010E94FB000E945001FF91EF91AC
:10038000BF91AF919F918F917F916F915F914F91AD
:100390003F912F910F900FBE0F901F901895F894DA
:0203A000FFCF8D
:0203A200040055
:00000001FF
